:020000040800F2
:1000000000500020893A0008F90D0008FB0D000897
:10001000FD0D0008FF0D0008010E000800000000A3
:10002000000000000000000000000000030E0008B7
:10003000050E000800000000070E0008090E000869
:10004000D13A0008D13A0008D13A0008D13A000864
:10005000D13A0008D13A0008D13A0008D13A000854
:10006000D13A0008D13A0008D13A0008D13A000844
:10007000D13A0008D13A0008D13A0008D13A000834
:10008000D13A0008D13A0008110E0008D13A000810
:10009000D13A0008D13A0008D13A0008210E0008F0
:1000A000D13A0008D13A0008D13A0008D13A000804
:1000B000D13A0008D13A0008D13A0008350E0008BC
:1000C000450E0008D13A0008D13A0008D13A00089C
:1000D000D13A0008D13A0008D13A0008D13A0008D4
:1000E000D13A0008D13A0008D13A000800000000D7
:1000F0000000000000000000000000000000000000
:0C01000000000000000000005FF808F1A3
:1001100010B5054C237833B9044B13B10448AFF341
:1001200000800123237010BD7C000020000000002F
:100130003C44000808B5034B1BB103490348AFF327
:10014000008008BD00000000800000203C44000842
:1001500081F0004102E000BF83F0004330B54FEA78
:1001600041044FEA430594EA050F08BF90EA020FE5
:100170001FBF54EA000C55EA020C7FEA645C7FEA78
:10018000655C00F0E2804FEA5454D4EB5555B8BF9B
:100190006D420CDD2C4480EA020281EA030382EA0C
:1001A000000083EA010180EA020281EA0303362D9E
:1001B00088BF30BD11F0004F4FEA01314FF4801C71
:1001C0004CEA113102D0404261EB410113F0004F83
:1001D0004FEA03334CEA133302D0524263EB43033A
:1001E00094EA050F00F0A780A4F10104D5F1200ED8
:1001F0000DDB02FA0EFC22FA05F2801841F1000133
:1002000003FA0EF2801843FA05F359410EE0A5F106
:1002100020050EF1200E012A03FA0EFC28BF4CF037
:10022000020C43FA05F3C01851EBE37101F00045ED
:1002300007D54FF0000EDCF1000C7EEB00006EEBFA
:100240000101B1F5801F1BD3B1F5001F0CD3490884
:100250005FEA30004FEA3C0C04F101044FEA4452DB
:1002600012F5800F80F09A80BCF1004F08BF5FEA62
:10027000500C50F1000041EB045141EA050130BD42
:100280005FEA4C0C404141EB0101013C28BFB1F554
:10029000801FE9D291F0000F04BF01460020B1FA9F
:1002A00081F308BF2033A3F10B03B3F120020CDA72
:1002B0000C3208DD02F1140CC2F10C0201FA0CF050
:1002C00021FA02F10CE002F11402D8BFC2F1200CB5
:1002D00001FA02F120FA0CFCDCBF41EA0C0190406B
:1002E000E41AA2BF01EB0451294330BD6FEA0404B4
:1002F0001F3C1CDA0C340EDC04F11404C4F120029F
:1003000020FA04F001FA02F340EA030021FA04F3B0
:1003100045EA030130BDC4F10C04C4F1200220FA07
:1003200002F001FA04F340EA0300294630BD21FA45
:1003300004F0294630BD94F0000F83F4801306BF0B
:1003400081F480110134013D4EE77FEA645C18BFFF
:100350007FEA655C29D094EA050F08BF90EA020F96
:1003600005D054EA000C04BF1946104630BD91EA8E
:10037000030F1EBF0021002030BD5FEA545C05D191
:100380004000494128BF41F0004130BD14F58004D0
:100390003CBF01F5801130BD01F0004545F0FE4144
:1003A00041F470014FF0000030BD7FEA645C1ABF79
:1003B000194610467FEA655C1CBF0B46024650EAB0
:1003C000013406BF52EA033591EA030F41F40021DC
:1003D00030BD00BF90F0000F04BF0021704730B562
:1003E0004FF4806404F132044FF000054FF0000137
:1003F00050E700BF90F0000F04BF0021704730B5F8
:100400004FF4806404F1320410F0004548BF4042CC
:100410004FF000013EE700BF42004FEAE2014FEA21
:1004200031014FEA02701FBF12F07F4393F07F4FFC
:1004300081F06051704732F07F4208BF704793F0FF
:100440007F4F04BF41F40021704730B54FF4607412
:1004500001F0004521F000411CE700BF50EA010215
:1004600008BF704730B54FF000050AE050EA0102BE
:1004700008BF704730B511F0004502D5404261EB2E
:1004800041014FF4806404F132045FEA915C3FF46F
:10049000D8AE4FF003025FEADC0C18BF03325FEA0C
:1004A000DC0C18BF033202EBDC02C2F1200300FABD
:1004B00003FC20FA02F001FA03FE40EA0E0021FAE2
:1004C00002F11444BDE600BF70B54FF0FF0C4CF4D0
:1004D000E06C1CEA11541DBF1CEA135594EA0C0F82
:1004E00095EA0C0F00F0DEF82C4481EA030621EABD
:1004F0004C5123EA4C5350EA013518BF52EA0335F8
:1005000041F4801143F4801338D0A0FB02CE4FF0A9
:100510000005E1FB02E506F00042E0FB03E54FF0D9
:100520000006E1FB03569CF0000F18BF4EF0010ED1
:10053000A4F1FF04B6F5007F64F5407404D25FEACD
:100540004E0E6D4146EB060642EAC62141EA555180
:100550004FEAC52040EA5E504FEACE2EB4F1FD0CC2
:1005600088BFBCF5E06F1ED8BEF1004F08BF5FEA40
:10057000500E50F1000041EB045170BD06F00046F2
:1005800046EA010140EA020081EA0301B4EB5C049F
:10059000C2BFD4EB0C0541EA045170BD41F4801197
:1005A0004FF0000E013C00F3AB8014F1360FDEBFBC
:1005B000002001F0004170BDC4F10004203C35DA98
:1005C0000C341BDC04F11404C4F1200500FA05F31B
:1005D00020FA04F001FA05F240EA020001F00042BC
:1005E00021F0004110EBD37021FA04F642EB060132
:1005F0005EEA430E08BF20EAD37070BDC4F10C045C
:10060000C4F1200500FA04F320FA05F001FA04F21F
:1006100040EA020001F0004110EBD37041F100010B
:100620005EEA430E08BF20EAD37070BDC4F1200516
:1006300000FA05F24EEA020E20FA04F301FA05F27E
:1006400043EA020321FA04F001F0004121FA04F226
:1006500020EA020000EBD3705EEA430E08BF20EAF6
:10066000D37070BD94F0000F0FD101F00046400030
:1006700041EB010111F4801F08BF013CF7D041EAB2
:10068000060195F0000F18BF704703F000465200B6
:1006900043EB030313F4801F08BF013DF7D043EA87
:1006A0000603704794EA0C0F0CEA135518BF95EA3D
:1006B0000C0F0CD050EA410618BF52EA4306D1D1C4
:1006C00081EA030101F000414FF0000070BD50EAE3
:1006D000410606BF1046194652EA430619D094EA6D
:1006E0000C0F02D150EA013613D195EA0C0F05D157
:1006F00052EA03361CBF104619460AD181EA0301AB
:1007000001F0004141F0FE4141F470014FF0000062
:1007100070BD41F0FE4141F4780170BD70B54FF0FD
:10072000FF0C4CF4E06C1CEA11541DBF1CEA13557D
:1007300094EA0C0F95EA0C0F00F0A7F8A4EB05045F
:1007400081EA030E52EA03354FEA013100F0888056
:100750004FEA03334FF0805545EA131343EA12631F
:100760004FEA022245EA111545EA10654FEA0026D4
:100770000EF000419D4208BF964244F1FD0404F58D
:10078000407402D25B084FEA3202B61A65EB0305E9
:100790005B084FEA32024FF480104FF4002CB6EBA6
:1007A000020E75EB030E22BFB61A754640EA0C0026
:1007B0005B084FEA3202B6EB020E75EB030E22BF66
:1007C000B61A754640EA5C005B084FEA3202B6EBA7
:1007D000020E75EB030E22BFB61A754640EA9C0066
:1007E0005B084FEA3202B6EB020E75EB030E22BF36
:1007F000B61A754640EADC0055EA060E18D04FEAF4
:10080000051545EA16754FEA06164FEAC30343EA93
:1008100052734FEAC2025FEA1C1CC0D111F4801F60
:100820000BD141EA00014FF000004FF0004CB6E759
:1008300011F4801F04BF01430020B4F1FD0C88BFF8
:10084000BCF5E06F3FF6AFAEB5EB030C04BFB6EB03
:10085000020C5FEA500C50F1000041EB045170BDF6
:100860000EF0004E4EEA113114EB5C04C2BFD4EB23
:100870000C0541EA045170BD41F480114FF0000EA7
:10088000013C90E645EA060E8DE60CEA135594EA23
:100890000C0F08BF95EA0C0F3FF43BAF94EA0C0F26
:1008A0000AD150EA01347FF434AF95EA0C0F7FF49B
:1008B00025AF104619462CE795EA0C0F06D152EAEF
:1008C00003353FF4FDAE1046194622E750EA4106D3
:1008D00018BF52EA43067FF4C5AE50EA41047FF4E4
:1008E0000DAF52EA43057FF4EBAE12E74FEA410247
:1008F00012F5001215D211D56FF47873B3EB625272
:1009000012D94FEAC12343F0004343EA505311F098
:10091000004F23FA02F018BF404270474FF000002A
:10092000704750EA013005D111F0004008BF6FF068
:10093000004070474FF00000704700BF30B589B0ED
:1009400000240494059406940794204B9A6942F07D
:1009500020029A619A6902F020020192019A9A6932
:1009600042F004029A619A6902F004020292029A29
:100970009A6942F008029A619B6903F008030393A5
:10098000039B134D22460C21284601F0A5FA0C23A7
:1009900004930123059306940223079304A9284690
:1009A00001F088F94FF4407304930A4B05930694C1
:1009B00004A9094801F07EF922462146172001F0DA
:1009C00001FB172001F036FB09B030BD00100240DA
:1009D0000008014000002110000C01400023044ADF
:1009E0001360044A1360044A1360044A136070479A
:1009F000300100202C01002038010020A000002040
:100A000000B583B0002002F08DFE012300931F2368
:100A10007F220021084602F090FF02F093FE03B00F
:100A20005DF804FBF0B583B004460D461646002081
:100A300002F078FE012700971F237F22002108463D
:100A400002F07BFFF1B2E8B202F02AFF044A3B4613
:100A500006CA204602F00CFF02F074FE03B0F0BD9F
:100A60001000002010B5044600F06AFD174B186016
:100A7000174B1B68C31AB3F57A7F09D9B4F5807F89
:100A800007D0B4F5007F1CD0104B1A68104B1A60C9
:100A900010BD104B1B78012BFAD00F4C0122042102
:100AA000204601F019FA01220821204601F014FA2B
:100AB000084B01221A700B2214210848FFF7B2FFDD
:100AC000E2E7044B03221A70DEE700BF9C0000201F
:100AD000340100202801002000080140544400088F
:100AE00008B502681A4B9A4200D008BD194800F0B8
:100AF0004DFA194B1860FFF77DFC0DA3D3E90023D5
:100B0000FFF7E2FC0CA3D3E90023FFF7DDFC0CA305
:100B1000D3E90023FFF702FE0BA3D3E90023FFF77D
:100B20001BFBFFF7E3FE0D4B1860DEE7AFF3008021
:100B30000AD7A3703DBA66406666666666660A4076
:100B40000000000000FEAF400000000000C0724046
:100B500000240140A4000020980000203001002063
:100B600072B6FEE700B585B00023019302930393AC
:100B70001048114A02608360037303754FF46022CA
:100B8000C26143600123036100F010FC68B90423D3
:100B90000193012302930023039301A9054800F068
:100BA0007BFA20B905B05DF804FBFFF7D9FFFFF72A
:100BB000D7FF00BFA40000200024014008B50A4868
:100BC0000A4B03600A4B436000238360C3604FF409
:100BD0008042026143618361C361036201F0C0FD31
:100BE00000B908BDFFF7BCFFD4000020005400404E
:100BF000A086010000B595B0282200210DEB02006F
:100C000002F09AFF00230593069307930893099334
:100C1000019302930393049301220A924FF48033C9
:100C20000B930E920222119212934FF4E01313933E
:100C30000AA800F0B5FCC8B90F230593022106915C
:100C4000002307934FF480620892099305A800F0EF
:100C5000D9FE68B9022301934FF40043039301A81E
:100C600000F09CFF30B915B05DF804FBFFF778FF8A
:100C7000FFF776FFFFF774FF00B587B000F042FC86
:100C8000FFF7B8FFFFF75AFEFFF76CFFFFF796FF7D
:100C900002F096FEFFF7B4FE0B2214214948FFF73D
:100CA000C1FE20E0484800F0DDFA0A2000F04EFCCA
:100CB000464C2268464901A802F046FF142128202C
:100CC00002F0EEFD434A012306CA01A802F0D0FD5E
:100CD00002F038FD2268404B1B689A4226DA3F4BEF
:100CE0001B78032B57D03D4B1B78012BDAD0022BFE
:100CF000F5D13B4B1B683B4A12683B4901A802F007
:100D000023FF052214213948FFF78CFE0F212820EC
:100D100002F0C6FD2F4A012306CA01A802F0A8FD71
:100D200002F010FD2D4B00221A70D8E7304C002243
:100D30000821204601F0D0F84FF47A7000F006FC4C
:100D400001220421204601F0C7F8204B1A68294BE4
:100D50001A6006E0234A1268B2B9224A1360502B87
:100D600015DD1E4B1B78012BB9D1174800F00EF989
:100D70000A2000F0EBFB1F4B1A68144B1B689A42C9
:100D8000E8DD1C4A1360EAE7154A1360E7E7134BF6
:100D900002221A70E5E7164C00220421204601F0D9
:100DA0009BF800220821204601F096F8FFF716FE76
:100DB0000A4B00221A700B2214210248FFF732FE60
:100DC00091E700BF64440008A40000203001002027
:100DD00074440008100000200000002028010020BA
:100DE000A0000020380100207C440008884400084E
:100DF000000801402C010020FEE7FEE7FEE7FEE7C9
:100E0000FEE770477047704708B500F08DFB08BDDE
:100E100008B5024800F0BEF808BD00BFA4000020DD
:100E200008B54FF4807001F05DF84FF4007001F0E8
:100E300059F808BD08B5024802F012FB08BD00BF12
:100E4000D400002008B5024802F0DAFB08BD00BF5C
:100E5000D400002082B00E4B9A6942F001029A61E0
:100E60009A6902F001020092009ADA6942F0805217
:100E7000DA61DB6903F080530193019B054A5368F3
:100E800023F0E06343F00073536002B0704700BF8B
:100E9000001002400000014000B587B0002302931B
:100EA0000393049305930268154B9A4202D007B04E
:100EB0005DF804FB03F56C439A6942F400729A6191
:100EC0009A6902F400720092009A9A6942F0040250
:100ED0009A619B6903F004030193019B2023029311
:100EE0000323039302A9074800F0E4FE0022114601
:100EF000122001F067F8122001F09CF8D7E700BF3C
:100F0000002401400008014010B586B00023029380
:100F10000393049305930268194B9A4201D006B0DB
:100F200010BD184CA36943F00803A361A36903F043
:100F300008030093009BC02302931223039303230F
:100F4000059302A9104800F0B5FEE36943F40013CD
:100F5000E361E36903F400130193019B002211464E
:100F60001F2001F02FF81F2001F064F80022114625
:100F7000202001F027F8202001F05CF8CFE700BF27
:100F80000054004000100240000C01400368D86C7F
:100F90007047704770B5044603681E685D6815F0B9
:100FA000200F17D016F0020F14D0826A12F0100F23
:100FB00003D1826A42F4007282629A6802F460226B
:100FC000B2F5602F33D02046FFF78AFD23686FF01B
:100FD00012021A6015F0800F22D016F0040F1FD0F5
:100FE000A36A13F0100F03D1A36A43F40053A36262
:100FF0002268936803F4E043B3F5E04F2ED05368C2
:1010000013F4806F05D1936803F46023B3F5602F68
:1010100021D0204600F04EFA23686FF00C021A60CF
:1010200015F0400F02D016F0010F28D170BD227BC1
:10103000002AC8D15A6822F020025A60A36A23F419
:101040008073A362A36A13F4805FBCD1A36A43F0E8
:101050000103A362B7E7237B002BDAD1536823F0A7
:1010600080035360A36A23F48053A362A36A13F43A
:10107000807FCED1A36A43F00103A362C9E7A36ACC
:1010800043F48033A3622046FFF783FF23686FF0A9
:1010900001021A60CAE7000030B482B00022019257
:1010A00090F82420012A00F091800346012280F864
:1010B00024204A68062A2DD80468606B02EB82025D
:1010C000053A4FF01F0C0CFA02FC20EA0C000D68E8
:1010D00005FA02F2024362630A68092A3AD91C68D7
:1010E000E06802EB42021E3A4FF0070C0CFA02FCD9
:1010F00020EA0C008D6805FA02F20243E2600A68F9
:10110000103A012A36D90020002283F8242002B0A8
:1011100030BC70470C2A0ED80568286B02EB82029F
:10112000233A1F24944020EA04000C6804FA02F2D7
:1011300002432A63D0E70568E86A02EB8202413A7B
:101140001F24944020EA04000C6804FA02F20243CF
:10115000EA62C1E71C68206902EB42024FF0070C0B
:101160000CFA02FC20EA0C008D6805FA02F2024338
:101170002261C4E71A681648824205D09A6A42F092
:1011800020029A620120BFE7906810F4000F1BD183
:10119000906840F4000090600A68102A01D0002096
:1011A000B2E70C4A12680C49A1FB0212920C02EB46
:1011B00082025200019202E0019A013A0192019AE0
:1011C000002AF9D100209FE700209DE702209EE73A
:1011D000002401400C00002083DE1B4330B583B0A7
:1011E0000023019303689A6812F0010F33D104467B
:1011F0009A6842F001029A60184B1B68184AA2FBD9
:1012000003239B0C019302E0019B013B0193019B93
:10121000002BF9D100F094F9054623689B6813F080
:10122000010F16D100F08CF9431B022BF5D923686E
:101230009B6813F0010FF0D1A36A43F01003A3627F
:10124000E36A43F00103E362002384F824300120C1
:1012500002E0002000E0002003B030BD0C000020C0
:1012600083DE1B4390F82430012B6DD010B504466B
:10127000012380F82430FFF7B1FF002860D1A36A72
:1012800023F4706323F0010343F48073A3622368A3
:101290002E4A93422CD0A26A22F48012A2625A688B
:1012A00012F4806F05D0A26A22F4405242F48052B8
:1012B000A262A26A12F4805F30D0E26A22F00602D3
:1012C000E262002284F824206FF002021A60226891
:1012D000536843F02003536023689A6802F4602245
:1012E000B2F5602F1DD09A6842F480129A602AE00D
:1012F000A2F58062526812F4702FCCD0A26A42F438
:101300008012A262124A526812F4806FD1D0A26A8F
:1013100022F4405242F48052A262CAE70022E26202
:10132000CFE70A4A934204D09A6842F4A0029A6036
:1013300009E0A2F58062526812F4702FD3D1F3E76E
:10134000002384F8243010BD02207047002801409B
:101350000024014038B503689A6812F0010F01D1EA
:10136000002038BD04469A6822F001029A6000F01D
:10137000E7F8054623689B6813F0010F13D000F0CF
:10138000DFF8431B022BF5D923689B6813F0010F8C
:10139000F0D0A36A43F01003A362E36A43F00103B1
:1013A000E3620120DDE70020DBE7000000287BD0BE
:1013B00070B50446836A002B4DD02046FFF7CAFF64
:1013C000A36A13F0100369D1002867D1A26A22F43E
:1013D000885222F0020242F00202A2626268E169CF
:1013E0000A43217B42EA4102A568B5F5807F02D01D
:1013F000012D36D01D46267D012E35D02668716818
:1014000021F46941294371602568AE68274931405C
:101410001143A960A168B1F5807F01D0012902D1F3
:101420002369013B1B052568E96A21F470010B4320
:10143000EB62236899681E4B0B409A4225D0A36A41
:1014400023F0120343F01003A362E36A43F00103A5
:10145000E362012027E0C36280F82430FFF71CFD1F
:10146000ABE74FF48075C6E731B9A169013945EAA8
:10147000413141F40065C1E7A16A41F02001A16258
:10148000E16A41F00101E162B8E70023E362A36A87
:1014900023F0030343F00103A36204E0A36A43F0D3
:1014A0001003A362012070BD01207047FDF7E1FF2A
:1014B000FE0E1FFF7047000010B504460E4B187853
:1014C0004FF47A73B3FBF0F30C4A1068B0FBF3F0FF
:1014D00000F0BEFD68B90F2C01D901200AE00022FE
:1014E00021464FF0FF3000F06DFD054B1C600020E1
:1014F00000E0012010BD00BF040000200C0000200F
:101500000800002008B5074A136843F01003136071
:10151000032000F045FD0F20FFF7CEFFFFF79AFCF8
:10152000002008BD00200240034A1168034B1B78CD
:101530000B441360704700BF3C01002004000020F2
:10154000014B1868704700BF3C01002038B50446C5
:10155000FFF7F6FF0546B4F1FF3F02D0044B1B78BE
:101560001C44FFF7EDFF401BA042FAD338BD00BF7B
:101570000400002082B0084B1B68084AA2FB03232A
:101580005B0A00FB03F3019300BF019B5A1E01920B
:10159000002BF9D102B070470C000020D34D62102F
:1015A000002800F0F18170B582B00446036813F0A2
:1015B000010F2CD0994B5B6803F00C03042B1DD05A
:1015C000964B5B6803F00C03082B12D06368B3F5ED
:1015D000803F41D0002B55D103F1804303F5043304
:1015E0001A6822F480321A601A6822F480221A6083
:1015F00037E08A4B5B6813F4803FE7D0874B1B686A
:1016000013F4003F03D06368002B00F0BF81236810
:1016100013F0020F75D0814B5B6813F00C0F5FD095
:101620007E4B5B6803F00C03082B54D02369002B1E
:1016300000F08A807A4B01221A60FFF781FF05468D
:10164000764B1B6813F0020F75D1FFF779FF401B33
:101650000228F5D903209EE1704A136843F48033D1
:101660001360636843B3FFF76BFF05466B4B1B6862
:1016700013F4003FCBD1FFF763FF401B6428F5D97B
:10168000032088E1B3F5A02F09D0644B1A6822F437
:1016900080321A601A6822F480221A60E1E703F1AE
:1016A0008043A3F53C331A6842F480221A601A681A
:1016B00042F480321A60D4E7FFF742FF0546574BE9
:1016C0001B6813F4003FA2D0FFF73AFF401B6428C9
:1016D000F5D903205FE1514B5B6813F4803FA5D13E
:1016E0004E4B1B6813F0020F03D02369012B40F00F
:1016F0004F814A4A136823F0F803616943EAC10342
:101700001360236813F0080F33D0A369002B5CD05B
:10171000434B0122C3F88024FFF712FF05463F4BDD
:101720005B6A13F0020F21D1FFF70AFF401B02286A
:10173000F5D903202FE1394A136823F0F8036169D2
:1017400043EAC1031360DCE7354B00221A60FFF760
:10175000F7FE0546314B1B6813F0020FD1D0FFF79F
:10176000EFFE401B0228F5D9032014E10120FFF70A
:1017700001FF236813F0040F00F09680274BDB690C
:1017800013F0805F34D1254BDA6942F08052DA6180
:10179000DB6903F080530193019B0125214B1B68FA
:1017A00013F4807F26D0E368012B3DD0002B53D16A
:1017B00003F1804303F504331A6A22F001021A622E
:1017C0001A6A22F004021A6233E0154B0022C3F8B1
:1017D0008024FFF7B5FE0546104B5B6A13F0020F3D
:1017E000C7D0FFF7ADFE401B0228F5D90320D2E099
:1017F0000025D3E70B4A136843F480731360FFF7A7
:101800009FFE0646074B1B6813F4807FCBD1FFF782
:1018100097FE801B6428F5D90320BCE0001002402D
:1018200000004242007000405F4A136A43F0010327
:101830001362E36833B3FFF783FE06465A4B1B6A15
:1018400013F0020F2FD1FFF77BFE801B41F288338C
:101850009842F3D903209EE0052B09D0524B1A6A17
:1018600022F001021A621A6A22F004021A62E0E708
:101870004D4B1A6A42F004021A621A6A42F00102DF
:101880001A62D6E7FFF75CFE0646474B1B6A13F069
:10189000020F08D0FFF754FE801B41F288339842B4
:1018A000F3D9032077E0E5B9E369002B72D03E4A13
:1018B000526802F00C02082A56D0022B17D03B4B7C
:1018C00000221A66FFF73CFE0446374B1B6813F0F4
:1018D000007F47D0FFF734FE001B0228F5D9032014
:1018E00059E0314AD36923F08053D361DCE72F4BB1
:1018F00000221A66FFF724FE05462B4B1B6813F0E7
:10190000007F06D0FFF71CFE401B0228F5D90320FC
:1019100041E0236AB3F5803F1AD023494B6823F492
:101920007413226A606A024313434B601F4B012207
:101930001A66FFF705FE04461B4B1B6813F0007F79
:101940000ED1FFF7FDFD001B0228F5D9032022E090
:10195000154A536823F40033A1680B435360DCE756
:10196000002018E0002016E0012B16D00E4B5B681B
:1019700003F48031226A914211D103F47013626A38
:1019800093420ED1002006E001207047012002E0C2
:10199000012000E0002002B070BD0120FBE7012023
:1019A000F9E70120F7E700BF0010024000004242C3
:1019B0000F4B5B6803F00C02082A01D00D487047FA
:1019C000C3F383420C49885C13F4803F0BD0084B6F
:1019D0005B68C3F34043094AD35C064A02FB00F04C
:1019E000B0FBF3F07047064B03FB00F0704700BFFD
:1019F0000010024000127A0098440008A844000831
:101A000000093D00002800F0A08070B50D46044696
:101A1000524B1B6803F007038B420BD24F4A1368EB
:101A200023F007030B431360136803F007038B4293
:101A300040F08D80236813F0020F17D013F0040FCD
:101A400004D0474A536843F4E0635360236813F0BB
:101A5000080F04D0424A536843F460535360404A2D
:101A6000536823F0F003A1680B435360236813F01D
:101A7000010F31D06368012B20D0022B25D0384ACA
:101A8000126812F0020F64D035494A6822F003024E
:101A900013434B60FFF754FD0646314B5B6803F080
:101AA0000C036268B3EB820F16D0FFF749FD801B71
:101AB00041F288339842F0D9032045E0284A126861
:101AC00012F4003FE0D101203EE0254A126812F0F6
:101AD000007FD9D1012037E0204B1B6803F00703BA
:101AE000AB420AD91D4A136823F007032B43136046
:101AF000136803F00703AB422DD1236813F0040FE2
:101B000006D0174A536823F4E063E1680B4353603F
:101B1000236813F0080F07D0114A536823F4605369
:101B2000216943EAC1035360FFF742FF0C4B5B6836
:101B3000C3F303130B4AD35CD8400B4B18600B4B19
:101B40001868FFF7B9FC002070BD01207047012024
:101B5000FAE70120F8E70120F6E700BF0020024085
:101B600000100240AC4400080C00002008000020D7
:101B7000014B1868704700BF0C00002008B5FFF744
:101B8000F7FF044B5B68C3F30223034AD35CD840DE
:101B900008BD00BF00100240BC44000870B582B010
:101BA0000446036813F0010F36D03F4BDB6913F096
:101BB000805F49D13C4BDA6942F08052DA61DB69DF
:101BC00003F080530193019B0125384B1B6813F4EC
:101BD000807F3BD0344B1B6A13F4407313D0626890
:101BE00002F440729A420ED02F4A136A23F44070D6
:101BF0002F490126C1F840640026C1F840641062F4
:101C000013F0010F36D1284A136A23F44073616838
:101C10000B431362002D3ED1236813F0020F06D050
:101C2000214A536823F44043A1680B43536023685F
:101C300013F0100F34D01C4A536823F48003E1687A
:101C40000B43536000202CE00025BEE7174A1368C1
:101C500043F480731360FFF773FC0646134B1B6855
:101C600013F4807FB6D1FFF76BFC801B6428F5D995
:101C7000032016E0FFF764FC06460B4B1B6A13F0CB
:101C8000020FC0D1FFF75CFC801B41F28833984201
:101C9000F3D9032005E0D36923F08053D361BBE778
:101CA000002002B070BD00BF001002400070004074
:101CB0000000424270B582B00024A446A6E0804DE8
:101CC000AA4210D007D97F4DAA420CD005F5803525
:101CD000AA4208D013E0A5F58015AA4203D005F565
:101CE0007025AA4207D18A68002A58D0012A51D00B
:101CF0004361082403E0A5F58015AA42F3D0BEF1A4
:101D0000FF0F4ED80646BEF1FF0F4CD84FEA8C02AB
:101D100033680F25954023EA050304FA02F21343C2
:101D200033604B6813F0805F6ED0674B9A6942F066
:101D300001029A619B6903F001030193019B4FEA41
:101D40009C02951C614B53F825600CF003039D0029
:101D50000F23AB4026EA03065D4B984229D003F5DA
:101D60008063984200F08E8003F58063984200F013
:101D70008B8003F58063984219D004231AE0CC6865
:101D8000BDE7CC680434BAE7CC680834B7E7CC6860
:101D90000C34B4E703610824B1E70024AFE704245E
:101DA000ADE7061DAFE7ACF108029200B0E70323F0
:101DB00000E00023AB4033430232444D45F822306B
:101DC0004B6813F4801F61D0424A936843EA0E03C4
:101DD00093604B6813F4001F5ED03E4AD36843EA19
:101DE0000E03D3604B6813F4003F5BD0394A53684D
:101DF00043EA0E0353604B6813F4803F58D0354AD2
:101E0000136843EA0E0313600CF1010C0A6832FAFE
:101E10000CF353D0012303FA0CF302EA030E33EA66
:101E20000202F1D14A68122A3FF649AF122A3FF660
:101E300066AF01A555F822F0E71C00087F1D0008D9
:101E4000891D00089B1D0008FF1C0008FF1C0008DE
:101E5000FF1C0008FF1C0008FF1C0008FF1C0008F6
:101E6000FF1C0008FF1C0008FF1C0008FF1C0008E6
:101E7000FF1C0008FF1C0008FF1C0008831D000851
:101E80008F1D0008012395E7022393E7114A936809
:101E900023EA0E0393609CE70E4AD36823EA0E03FD
:101EA000D3609FE70B4A536823EA0E035360A2E70F
:101EB000084A136823EA0E031360A5E702B070BD59
:101EC000000022100000311000100240000001400C
:101ED00000080140000401400AB101617047090493
:101EE0000161704708B5054B5B69034200D108BD2D
:101EF000024B5861FEF7B6FDF9E700BF0004014050
:101F000008B590F82130DBB2022B03D004238363A1
:101F1000012008BD0268136823F00E0313600268F5
:101F2000136823F0010313600368194A934214D025
:101F3000143293421FD0143293421ED01432934273
:101F40001ED0143293421ED01432934202D04FF06E
:101F5000807203E04FF4801200E001220D4B5A60C2
:101F6000012380F82130002380F82030436B6BB1CF
:101F700098470020CDE71022F0E74FF48072EDE79C
:101F80004FF48052EAE74FF48032E7E70020C0E7E1
:101F9000080002400000024090F821007047000055
:101FA000074AD36823F4E0631B041B0C000200F40F
:101FB000E060034343F0BF6343F40033D3607047F2
:101FC00000ED00E000B5194BDB68C3F30223C3F159
:101FD000070CBCF1040F28BF4FF0040C03F1040EF2
:101FE000BEF1060F18D9033B4FF0FF3E0EFA0CFC72
:101FF00021EA0C0199400EFA03F322EA0303194384
:1020000000280BDB0901C9B200F1604000F5614016
:1020100080F800135DF804FB0023E5E700F00F00F3
:102020000901C9B2024B1954F4E700BF00ED00E00A
:1020300014ED00E0002807DB00F01F024009012337
:102040009340024A42F82030704700BF00E100E0B0
:102050000138B0F1807F0BD24FF0E0235861054A80
:10206000F02182F823100020986107221A6170473E
:102070000120704700ED00E003685A6912F0800FFC
:1020800001D000221A61704790F83E30DBB2402B3D
:1020900010D00369B3F5804F1BD0036D002B39D1ED
:1020A000436CC3F3C813026803F0060343F0F00364
:1020B00013617047036D2BB9436C026803F0FE0394
:1020C00013617047436C026843F00103DBB2136194
:1020D000704790F83D30DBB2212B0FD0436C026883
:1020E00043F00103DBB21361436B6BB19B6A5BB1DD
:1020F0000268536843F4006353607047436C02689E
:1021000003F0FE031361EFE7836B33B19B6A002B8F
:10211000EED102E0036D012B00D07047436CC3F396
:10212000C813026803F0060343F0F1031361F4E7F8
:10213000436C0268DBB21361436B3BB19B6A2BB10A
:102140000268536843F4006353607047836B002B4D
:10215000FBD09B6A002BF3D1F7E710B48DB090F859
:102160003E30DAB2C16A046B90F83D30DBB2222B0C
:102170000AD000230B9303685A690B929B690B9357
:102180000B9B0DB010BC7047036D0BB9402A17D0E4
:10219000036D1BB90369B3F5404F19D0438D9BB252
:1021A000002B25D1039303685A6903929A6903921D
:1021B000039A1A6842F400721A6000230365E0E78C
:1021C000019303685A6901929B690193019BD8E7C7
:1021D0000023029303685A6902929A690292029A52
:1021E0001A6842F480721A60036D01330365C8E710
:1021F000438D9BB2012B25D0438D9BB2022B7BD00C
:102200000268136843F48063136003685A6812F429
:10221000006F0ED011F5803F07D0012905D00829A5
:1022200003D0102901D0202903D15A6842F48052EA
:102230005A6000230A9303685A690A929B690A93B9
:102240000A9BBAE711F5803F11D0082934D0202924
:1022500032D0122C2ED0042940D002293ED0102991
:102260003CD00268136823F4806313603BE002688B
:10227000136823F48063136003685A6812F4006FD4
:102280000CD01A6822F480621A6000230493036859
:102290005A6904929B690493049B8EE7002205927D
:1022A0005A6905929A690592059A1A6842F4007271
:1022B0001A6082E70129CED00268136823F4806394
:1022C00013600023079303685A6907929A6907927B
:1022D000079A1A6842F400721A606EE7026813687F
:1022E00043F4806313600023069303685A690692DF
:1022F0009B690693069B60E7042915D0022913D039
:10230000102911D00268136843F40063136000239E
:10231000089303685A6908929A690892089A1A6899
:1023200022F480621A600CE00268136843F4806350
:1023300013600023099303685A6909929B69099302
:10234000099B03685A6812F4006F3FF436AF11F529
:10235000803F08D0012906D0082904D0102902D0D6
:1023600020297FF42AAF5A6842F480525A6024E749
:10237000438D9BB25BB1426A036812781A61436A6B
:1023800001334362438D9BB2013B9BB2438570474F
:10239000438D9BB25BB103681A69436A1A70436A42
:1023A00001334362438D9BB2013B9BB2438570472F
:1023B00082B0002301930E4B1B68DB080D4AA2FB81
:1023C00003231B0A03EB83030193019B013B01934E
:1023D000019B33B103681B6813F4007FF5D1002023
:1023E00004E0036C43F020030364012002B0704753
:1023F0000C00002089B5F81403685A6912F4806F44
:1024000001D1002070476FF480625A61002303639A
:10241000202280F83D2080F83E30026C42F0040219
:10242000026480F83C3001207047C36AB3F52A0F7C
:1024300004D0C36AB3F12A4F03D070470123C362AB
:1024400070470823C362F8E72DE9F04106460C46C1
:10245000174698463BE0FFF773F8069BC01A4045C5
:1024600002D8B8F1000F32D1012D18D033689B6922
:1024700024EA03039BB2B3FA83F35B099F4226D19C
:1024800000233363202286F83D2086F83E30326CEC
:1024900042F02002326486F83C30012027E03368A5
:1024A0005B6924EA03039BB2B3FA83F35B09E5E7B4
:1024B00033685B6924EA030C1FFA8CFCBCFA8CFCC1
:1024C0004FEA5C1C674511D1B8F1FF3FC3D1C4F39B
:1024D0000745012DECD033689B6924EA030C1FFAF1
:1024E0008CFCBCFA8CFC4FEA5C1CEBE70020BDE8DE
:1024F000F0812DE9F84305460E469046994653E093
:102500001A6842F400721A602B686FF480625A6194
:1025100000232B63202285F83D2085F83E302A6C6D
:1025200042F004022A6485F83C3001204AE0FFF7BB
:1025300007F8A0EB0900404502D8B8F1000F33D1ED
:10254000012F17D02B689B6926EA03039BB2003B3F
:1025500018BF012343B300232B63202285F83D20BD
:1025600085F83E302A6C42F020022A6485F83C301F
:10257000012027E02B685B6926EA03039BB2003B3E
:1025800018BF0123E6E72B689C6926EA0404A4B27D
:10259000003C18BF0124A4B12B685A6912F4806F63
:1025A000AED1B8F1FF3FC2D1C6F30747012FEAD140
:1025B0002B685C6926EA0404A4B2003C18BF01241D
:1025C000E9E70020BDE8F88370B504460D461646DD
:1025D00023685B6913F0800F21D12046FFF70CFFC1
:1025E000F8B9B5F1FF3FF3D0FEF7AAFF801BA84270
:1025F00001D8002DECD123685B6913F0800FE7D17F
:1026000000232363202284F83D2084F83E30226C8E
:1026100042F02002226484F83C30012000E00020D7
:1026200070BD0120FCE700002DE9F04385B00446B1
:102630000D4691461F46DDF830800D9E03681968EF
:1026400041F4807119600096434600224FF0011159
:10265000FFF7FAFE60B9236805F0FE051D613346F9
:10266000424626492046FFF744FF68B1012008E0B2
:1026700023681B6813F4807F02D04FF40073236437
:10268000032005B0BDE8F0830023039323685A6953
:1026900003929B690393039B324641462046FFF712
:1026A00093FF30B9012F0FD123685FFA89F61E61BD
:1026B000E7E7236C042B01D00120E2E722681368CE
:1026C00043F400731360F7E723684FEA19221A6195
:1026D000324641462046FFF777FF20B923685FFA6C
:1026E00089F61E61CDE7236C042B01D00120C8E7D9
:1026F0002268136843F400731360F7E702000100D7
:1027000070B504460D46164623685B6913F0040F46
:1027100021D12046FFF770FEF8B9B5F1FF3FF3D0A5
:10272000FEF70EFF801BA84201D8002DECD12368D4
:102730005B6913F0040FE7D100232363202284F8A0
:102740003D2084F83E30226C42F02002226484F85E
:102750003C30012000E0002070BD0120FCE70000BB
:10276000002800F0CC8070B5044690F83D30002B76
:1027700077D0242384F83D302268136823F00103C6
:1027800013602268136843F40043136022681368DF
:1027900023F400431360FFF7F1F962685A4B9A4241
:1027A00064D85A4B98428CBF00230123002B40F081
:1027B000A8805749A1FB00318B0C25686A6822F07C
:1027C0003F0242EA91426A6021680A6A22F03F02AF
:1027D00066684D4DAE424FD8013313430B622168FA
:1027E000CA6922F44F4222F0FF026668464B9E42BD
:1027F0004CD8431E7600B3FBF6F3013340F6FC7071
:10280000034278D0C3F30B031343CB6121680B68F9
:1028100023F0C003E269206A024313430B6021687E
:102820008B6823F4034323F0FF032269E06802432B
:1028300013438B602168CB6823F0FF036269A069B2
:1028400002431343CB602268136843F00103136013
:1028500000202064202384F83D30206384F83E006B
:1028600070BD80F83C30FEF74FFB82E7294B984261
:102870008CBF0023012399E74FF4967505FB03F302
:10288000254DA5FB03539B090133A6E7A368BBB9FC
:10289000451E06EB460CB5FBFCF50135C5F30B05F3
:1028A000B5FA85F56D0945BBC3B9013806EB46039A
:1028B000B0FBF3F30133C3F30B0343F40043A3E78B
:1028C000451E06EB860C0CEB8C0CB5FBFCF50135BC
:1028D000C5F30B05B5FA85F56D09E4E7013806EB9C
:1028E000860303EB8303B0FBF3F30133C3F30B0362
:1028F00043F4404388E7042386E7012384E701206B
:1029000070470120ACE700BFA08601007F841E0055
:1029100083DE1B43FF083D00D34D62102DE9F043D9
:1029200083B004460F46904699460C9EFEF708FE7B
:10293000054694F83D00C0B2202803D0022003B021
:10294000BDE8F0830095192301224B492046FFF78B
:102950007BFD002840F0898094F83C30012B00F08A
:102960008680012384F83C3023681A6812F0010F36
:1029700003D11A6842F001021A602268136823F436
:1029800000631360212384F83D30402384F83E30F7
:10299000002323640A9B6362BDF82C306385638D3A
:1029A0002385364BE362019500964B4642463946F5
:1029B0002046FFF739FE00285BD1238D002B35D050
:1029C0002A4631462046FFF7FFFD20BB626A236896
:1029D00012781A61626A531C6362218D013989B2CF
:1029E0002185638D9BB2013B9BB263852368586947
:1029F00010F0040FE1D00029DFD052781A61636A29
:102A000001336362238D013B2385638D9BB2013BC0
:102A10009BB26385D1E7236C042B01D001208EE7A4
:102A20002268136843F400731360F7E72A463146BF
:102A30002046FFF765FE50B1236C042B01D0012026
:102A40007DE72268136843F400731360F7E7226898
:102A5000136843F400731360202384F83D3000238F
:102A600084F83E3084F83C3069E7022067E70220B2
:102A700065E7012063E700BF020010000000FFFFD0
:102A800070477047704708B590F83D30DAB2438D13
:102A90009BB283B1416A036809781961436A0133C3
:102AA0004362438D9BB2013B9BB24385438D9BB2F6
:102AB0000BB9292A00D008BD0268536823F480634B
:102AC000536021230363282380F83D30FFF7DAFFAA
:102AD000F1E7704708B590F83D30DAB2438D9BB20C
:102AE00083B103681969436A1970436A0133436209
:102AF000438D9BB2013B9BB24385438D9BB20BB987
:102B00002A2A00D008BD0268536823F4806353600A
:102B100022230363282380F83D30FFF7DAFFF1E733
:102B2000704700B583B090F83D3003F02803282BA0
:102B30000CD00023019302685169019192690192BE
:102B4000019A80F83C3003B05DF804FB02685368DA
:102B500023F48063536011F0040F0BD0002311F0B5
:102B6000800F09D18289002180F83C101946FFF7B7
:102B7000D7FFE8E70123F2E7028BF4E77047000094
:102B800010B5044690F83D30DBB2C26A082A01D085
:102B9000202A01D1282B06D0212B1FD023686FF4C7
:102BA00080625A6110BD1D4BE3622268536823F4B2
:102BB000E063536023686FF480625A61226813688F
:102BC00023F48063136000232363202284F83D20D4
:102BD00084F83E302046FFF7D1FFE3E70F4BE36276
:102BE00021232363202384F83D30002384F83E30E2
:102BF0002268536823F4E063536023686FF48062B3
:102C00005A612268136823F4806313602046FFF73B
:102C100033FA2046FFF736FFC4E700BF0000FFFF8E
:102C2000704708B5C26A90F83D30DBB2212B00D066
:102C300008BD438D9BB263B1426A036812781A6182
:102C4000436A01334362438D9BB2013B9BB2438590
:102C5000EEE7082A04D0202A02D012F5803F19D1CD
:102C60000268536823F4E06353600268136843F416
:102C70000073136000230363202380F83D3090F835
:102C80003E30DBB2402B15D0002380F83E30FFF7FA
:102C9000F7FECDE70268536823F4E0635360112325
:102CA0000363002380F83E30202380F83D30FFF797
:102CB000E7FEBDE7002380F83E30FFF7B1FFB7E73E
:102CC00008B590F83D30026D9AB9C36C012B08D05D
:102CD000836CC3F3072302681361036D013303653B
:102CE00008BD836C0268DBB21361036D02330365B8
:102CF000F6E7DBB2026D012A23D0026D022A3ED133
:102D0000222B26D0428D92B20AB1212B2AD0428D9D
:102D100092B2002AE4D1212BE2D10268536823F455
:102D2000E06353600268136843F400731360002388
:102D30000363202280F83D2080F83E30FFF770FFCB
:102D4000CEE7836C0268DBB21361036D0133036568
:102D5000C6E70268136843F480731360036D0133A0
:102D60000365BDE7426A036812781A61436A01335A
:102D70004362438D9BB2013B9BB24385B0E7FFF7B3
:102D80007BF9ADE710B590F83D30DBB290F83E200E
:102D9000D2B2C46A018D09B9212B04D0212B3BD0BA
:102DA000402A37D010BD082C04D0202C02D014F5B6
:102DB000803F19D10268536823F4E06353600268CE
:102DC000136843F40073136000230363202380F827
:102DD0003D3090F83E30DBB2402B15D0002380F818
:102DE0003E30FFF74DFEDDE70268536823F4E063F1
:102DF000536011230363002380F83E30202380F8C2
:102E00003D30FFF73DFECDE7002380F83E30FFF771
:102E100007FFC7E7222BC5D1438D9BB22BB90268B0
:102E2000536823F480635360BCE790F83E30DBB214
:102E3000402B0CD0426A036812781A61436A01334E
:102E40004362438D9BB2013B9BB24385AAE7FFF7E8
:102E500037FFA7E7704708B5C26A438D9BB2042BC2
:102E600014D0438D9BB2032B22D0438D9BB2022BF7
:102E700039D003681A69436A1A70436A013343629E
:102E8000438D9BB2013B9BB2438510E002685368BF
:102E900023F48063536003681A69436A1A70436AB3
:102EA00001334362438D9BB2013B9BB2438508BD16
:102EB00001684B6823F480634B60042A06D0022A21
:102EC00004D00268136823F48063136003681A69EE
:102ED000436A1A70436A01334362438D9BB2013BDC
:102EE0009BB24385E3E7012A0BD0102A09D0042ABC
:102EF00038D0022A36D00268136843F40073136096
:102F000004E00268136823F48063136003681A699D
:102F1000436A1A70426A531C4362438D9BB2013B61
:102F20009BB2438503681B695370436A0133436254
:102F3000438D9BB2013B9BB243850268536823F4E7
:102F400040735360202380F83D3090F83E30DBB270
:102F5000402B0DD0002380F83E3012230363FFF78F
:102F600090FDA4E70268136843F480631360CDE723
:102F7000002380F83E300363FFF76CFF97E770474C
:102F800090F83D30DBB2222B00D0704710B50446DC
:102F9000438D9BB2032B15D903681A69436A1A70D3
:102FA000436A01334362438D9BB2013B9BB243852D
:102FB000438D9BB2032B0FD10268536823F48063C7
:102FC000536009E0C26A022A01D0012B05D92268A8
:102FD000536823F48063536010BDFFF7E9F90028BC
:102FE0002ED12268136823F480631360226853682B
:102FF00023F4E063536023681A69636A1A70636A92
:1030000001336362638D9BB2013B9BB263852023D6
:1030100084F83D3094F83E30DBB2402B08D00023DA
:1030200084F83E30122323632046FFF72AFDD3E7BE
:10303000002384F83E3023632046FFF70BFFCBE7E5
:103040002268536823F4E063536023681A69636A53
:103050001A70636A01336362638D9BB2013B9BB25A
:103060006385202384F83D30002384F83E302046D9
:10307000FFF785FFB0E7704700B583B000230193E9
:10308000406A90F83D20D2B2324B1B68DB083249CF
:10309000A1FB03131B0A03EB8303C3EBC3030193DD
:1030A000019B43B1019B013B019303681B6813F42F
:1030B000007FF5D103E0036C43F020030364436B0E
:1030C0000BB100219962836B0BB1002199620168F9
:1030D0000B6823F480630B6000234385436B0BB1C3
:1030E00000215963836B0BB10021596301680B68A0
:1030F00023F001030B6090F83D30DBB2602B0ED063
:1031000002F02802282A14D0202380F83D30002322
:1031100080F83E30FFF733FF03B05DF804FB202357
:1031200080F83D30002380F83E300364FFF7A3FFB2
:10313000F2E70268136843F0010313600268136842
:1031400043F48063136000230363282380F83D3039
:10315000E0E700BF0C00002089B5F81410B5044664
:1031600090F83D30DBB290F83E20D2B2102A36D033
:10317000402A34D003F02802282A38D02268526826
:1031800012F4006F07D1602B05D0202384F83D3066
:10319000002384F83E300023236323685A6812F426
:1031A000006F48D05A6822F400625A60626B92F84D
:1031B0002130DBB2012B20D0444B5363606BFEF710
:1031C0009FFE002849D02268136823F00103136092
:1031D000202384F83D30606B436B98473DE0222B01
:1031E000C8D121680A6822F400620A60C2E700239D
:1031F0002363282384F83D30CFE7A36B334A5A6317
:10320000A06BFEF77DFE40B323685A6912F0400FB1
:1032100005D01A69636A1A70636A013363622268AF
:10322000136823F001031360202384F83D30A06B62
:10323000436B984711E094F83D20D2B2602A1FD02A
:103240005A6912F0400F05D01A69636A1A70636AEE
:10325000013363622046FFF792FE236C13F00F0FD9
:1032600004D02268536823F4E063536094F83D303F
:10327000DBB2226C12F0040F01D0282B18D010BD45
:10328000202284F83D20002222645A6912F0400F67
:1032900005D01A69636A1A70636A0133636222682F
:1032A000136823F0010313602046FFF7E4FED4E720
:1032B000074BE36200232363202284F83D2084F837
:1032C0003E302046FFF75AFCD9E700BF79300008AE
:1032D0000000FFFF30B583B0044690F83D50EDB2DA
:1032E0000268536823F4E06353600023019303688A
:1032F0005A6901921A6842F001021A60019B026841
:10330000136823F48063136003685A6812F4006F33
:1033100038D0222D21D02A2D1FD0426B126852683E
:1033200092B24285428D92B21AB1026C42F004020E
:1033300002645A6822F400625A60606BFEF72CFE49
:1033400001281FD0636B444A5A63606BFEF7D8FDB7
:10335000C0B1606B436B984714E0A26B126852686F
:1033600092B26285628D92B21AB1226C42F004026E
:1033700022645A6822F400625A60A06BFEF70CFEC9
:10338000012842D1638D9BB233B323685A6912F08E
:10339000040F0AD01A69636A1A70636A01336362A0
:1033A000638D9BB2013B9BB2638523685A6912F01F
:1033B000400F0AD01A69636A1A70636A0133636244
:1033C000638D9BB2013B9BB26385638D9BB21BB146
:1033D000236C43F004032364236C13BB2A2D25D0F4
:1033E00094F83D30DBB2282B29D0236B222B01D05F
:1033F000222D19D100232363202284F83D2084F854
:103400003E302046FFF765FB0EE0A36B124A5A637D
:10341000A06BFEF775FD0028B4D0A06B436B9847F6
:10342000B0E72046FFF79AFE03B030BD00232363C8
:10343000282384F83D302046FFF74BFBD0E7074BAD
:10344000E36200232363202284F83D2084F83E3089
:103450002046FFF793FBE7E7793000080000FFFF05
:10346000F8B5044602685568C66A90F83E30DBB28B
:1034700090F83D10C8B2102B13D0402B11D0236C04
:10348000002B7AD05369002113F0020F78D015F485
:10349000007F75D0236C03B191692046FFF741FB93
:1034A000F8BDD2F818C0516911F0010705D1B6F581
:1034B0002A0FF5D0B6F12A4FF2D017B115F4007FDC
:1034C00029D111F0080F02D015F4007F2AD111F094
:1034D000020F02D015F4007F28D11CF0040F31D068
:1034E000526812F4006FDBD111F0800F05D015F493
:1034F000806F02D011F0040F1CD011F0040FCFD058
:1035000015F4007FCCD0212818D0402BC8D12046FC
:10351000FFF7D6FBC4E72046FEF787FF2046FEF7FD
:10352000B3FDBDE72046FEF703FEB9E72046FEF7F0
:1035300014FEB5E72046FFF725FCB1E72046FFF76C
:1035400070FBADE7536813F4006FA9D111F0400F81
:1035500005D015F4806F02D011F0040F09D011F0DE
:10356000040F9DD015F4007F9AD02046FFF773FC1E
:1035700096E72046FFF704FD92E79169536983E7D8
:1035800013F0100F02D015F4007F18D121281AD0A3
:10359000292818D013F0400F05D015F4806F02D001
:1035A00013F0040F28D013F0040F3FF479AF15F493
:1035B000007F3FF475AF2046FEF7EAFE70E7204635
:1035C000FFF788FE6CE713F0800F05D015F4806FCD
:1035D00002D013F0040F0BD013F0040F3FF460AFD0
:1035E00015F4007F3FF45CAF2046FEF7C1FE57E7BD
:1035F0002046FFF748FA53E72046FFF76BFA4FE7FC
:10360000F8B5044603685D695F6890F83E20D2B261
:1036100015F4807F0CD017F4807F41D06FF4807157
:10362000596101680B6843F400430B60012600E018
:10363000002615F4007F08D017F4807F05D046F0EF
:10364000020623686FF40071596115F4806F19D078
:1036500017F4807F16D0638D99B294F83D30DBB2B9
:10366000206B202A1ED023686FF48061596146F0D8
:103670000406102A01D0402A04D12268136843F4BA
:103680000073136015F4006F08D017F4807F05D025
:1036900046F0080623686FF400625A6186B9F8BDE7
:1036A0000026C6E70029DED1212B05D0292B03D027
:1036B000282BD8D12128D6D12046FFF761FAE1E79F
:1036C000236C1E4326642046FFF748FDE7E770475A
:1036D00000B587B08DF817004FF0FF330293012338
:1036E00001930DF117020092002278210248FFF7A2
:1036F00015F907B05DF804FBD400002000B585B0D3
:103700004FF0FF33029389B20191009001234022D0
:1037100078210348FFF702F905B05DF804FB00BF0C
:10372000D4000020002303E0FF21054AD1540133D7
:10373000B3F5007F03D20028F6D10146F5E77047C4
:103740004801002010B5002412E0A4F15000C0B2DE
:10375000FFF7BEFF0020FFF7BBFF1020FFF7B8FF09
:103760008021054800EBC410FFF7C8FF0134E4B224
:10377000032CEAD910BD00BF4801002010F0800FD3
:103780000FD11F290DD8012A0CD0CB0800EBC31094
:1037900001F0070101238B40084A115C21EA030173
:1037A00011547047CB0800EBC31001F0070101234F
:1037B0008B40024A115C19431154704748010020A4
:1037C0002DE9F04782B0814602A800E906001F46B5
:1037D000A9F12003DBB25E2B40D8244B1B889DF857
:1037E00000603344802B3DDC204B5B889DF801A0BA
:1037F0005344202B38DC00251FE01C4B18885988C7
:1038000029442044B7FA87F25209C9B2C0B2FFF77F
:10381000B5FF0134A6420FD908FA04F313F4004FA0
:10382000EBD0124B18885988294420443A46C9B233
:10383000C0B2FFF7A3FFECE70135AA4508D9A9F10B
:10384000200303FB0A53019A32F813800024E1E7B6
:10385000064B1A8816441E80484600E0002002B03D
:10386000BDE8F0870020FAE70020F8E740010020DB
:1038700030B583B0044602A800E906001D4600E00A
:103880000134207848B12B4602AA12E90600FFF75E
:1038900097FF024620788242F2D003B030BD00008C
:1038A000014B188059807047400100202DE9F04FEE
:1038B00083B004460E4691469B469DF830A0A2EB8D
:1038C0000008B8F1000FB8BFC8F100085F1A002F58
:1038D000B8BF7F4282420DD901230093B3450DD971
:1038E00001230193A8EB0705524659464846FFF7C6
:1038F00045FF1BE04FF0FF330093EFE74FF0FF333E
:103900000193EFE7524631462046FFF737FF6B0041
:103910007A42B2EB450F03DAED1B009A1444E4B28D
:10392000984503DD4544019B1E44F6B24C45E9D160
:103930005E45E7D103B0BDE8F08F2DE9F04182B0DC
:1039400005460E4617461C469DF82080CDF800809F
:103950000B46FFF7ABFFCDF8008023463A463146D1
:103960003846FFF7A3FFCDF8008023462A462146BC
:103970003846FFF79BFFCDF8008033462A462146A4
:103980002846FFF793FF02B0BDE8F08110B504466A
:103990008120FFF79DFE2046FFF79AFE10BD000034
:1039A00008B530B1054B01225A71AF20FFF790FEE8
:1039B00008BD024B00225A71AE20F7E740010020FB
:1039C00008B56420FDF7C2FD0020FFF7E9FF2020C5
:1039D000FFF77EFE0020FFF77BFEB020FFF778FEAA
:1039E000C820FFF775FE0020FFF772FE1020FFF7DA
:1039F0006FFE4020FFF76CFEFF20FFF7C7FFA120FE
:103A0000FFF766FEA620FFF763FEA820FFF760FE23
:103A10001F20FFF75DFEA420FFF75AFED320FFF71B
:103A200057FE0020FFF754FED520FFF751FEF0208F
:103A3000FFF74EFED920FFF74BFE2220FFF748FE8E
:103A4000DA20FFF745FE0220FFF742FEDB20FFF7FA
:103A50003FFE2020FFF73CFE8D20FFF739FE1420AB
:103A6000FFF736FE0120FFF79BFF0020FFF75AFE0D
:103A7000FFF768FE034B00221A805A8001221A7158
:103A800008BD00BF40010020FFF721FE0B480C4994
:103A90000C4A002302E0D458C4500433C4188C42AA
:103AA000F9D3094A094C002301E013600432A24211
:103AB000FBD300F00FF8FDF7DFF87047000000209F
:103AC0007C000020F04A00087C0000205C030020FD
:103AD000FEE7000070B500260C4D0D4C641BA410D1
:103AE000A64209D100F0AAFC00260A4D0A4C641B2C
:103AF000A410A64205D170BD55F8043B9847013685
:103B0000EEE755F8043B98470136F2E7E84A00082B
:103B1000E84A0008E84A0008EC4A00080A449142D2
:103B200000F1FF3300D1704710B511F8014B9142FD
:103B300003F8014FF9D110BD03460244934200D16E
:103B4000704703F8011BF9E70EB46FF0004100B5B0
:103B50009CB01DAB0290069007910491084809495A
:103B600053F8042B0591006802A9019300F068F84E
:103B70000022029B1A701CB05DF804EB03B0704782
:103B8000180000200802FFFF2DE9F0478E688246EA
:103B90009E420C4690461F4638D88A8912F4906F90
:103BA00032D0256809690133A5EB010965694B44E9
:103BB00005EB450505EBD5756D109D4238BF1D46DB
:103BC000530531D5294600F061FB064650B90C2358
:103BD0004FF0FF30CAF80030A38943F04003A381BF
:103BE000BDE8F0874A462169FFF798FFA38923F4CF
:103BF000906343F08003A38126614E4426603E46D5
:103C00006561A5EB0905A560BE4200D93E46324676
:103C10004146206800F0B8FAA36800209B1BA3600F
:103C2000236833442360DBE72A4600F0A3FB064603
:103C30000028E1D15046216900F0C0FAC7E7000032
:103C40002DE9F04F98468B8907461B060D46144612
:103C50009DB00ED50B6963B9402100F017FB2860B9
:103C6000286120B90C233B604FF0FF30D1E04023A6
:103C70006B610023099320238DF8293030234FF006
:103C80000109CDF80C80DFF8A4818DF82A30234695
:103C90009A4613F8012B0AB1252AF9D1BAEB040B85
:103CA0000BD05B46224629463846FFF76DFF0130B0
:103CB00000F0AA80099A5A4409929AF80030002B21
:103CC00000F0A28000234FF0FF32CDE905230AF176
:103CD000010A049307938DF853301A935446052232
:103CE00014F8011B514800F041FA049AD8B9D006E3
:103CF00044BF20238DF85330110744BF2B238DF888
:103D000053309AF800302A2B15D0544600204FF03B
:103D10000A0C079A214611F8013B303B092B4ED97A
:103D2000B0B1079214E0A0EB080309FA03F31343C0
:103D3000A2460493D2E7039B191D1B680391002B35
:103D4000BBBF5B4242F0020207930793B8BF0492E5
:103D500023782E2B0CD163782A2B35D1039B023488
:103D60001A1D1B680392002BB8BF4FF0FF33059359
:103D7000DFF8BCA003225046217800F0F7F940B1EB
:103D80004023A0EB0A0003FA00F0049B0134034334
:103D9000049314F8011B062226488DF8281000F021
:103DA000E5F9002838D0244B1BBB039B073323F0D5
:103DB000070308330393099B3344099367E70C46D1
:103DC00001200CFB0232A5E700234FF00A0C194634
:103DD00001340593204610F8012B303A092A03D903
:103DE000002BC5D00591C3E7044601230CFB01213C
:103DF000F0E703AB00932A463846104B04A9AFF313
:103E00000080421C0646D6D1AB895B063FF52CAF3D
:103E100009981DB0BDE8F08F03AB00932A463846E1
:103E2000064B04A900F07CF8EBE700BFB44A000899
:103E3000BA4A0008BE4A000800000000893B00089A
:103E40002DE9F047164699468A680B690746934262
:103E5000B8BF1346336091F843200C46DDF820804C
:103E60000AB1013333602368990642BF33680233D5
:103E70003360256815F0060506D104F1190AE368D8
:103E800032689B1AAB4228DC94F84320131E226848
:103E900018BF012392062DD44946384604F1430247
:103EA000C047013020D02368E56803F00603042BE7
:103EB00018BF002532684FF00006A36808BFAD1A8E
:103EC000226908BF25EAE5759342C4BF9B1AED1825
:103ED0001A34B5421AD1002008E00123524649465F
:103EE0003846C047013003D14FF0FF30BDE8F087BE
:103EF0000135C4E73020E11881F843005A1C94F8DA
:103F000045102244023382F84310C5E701232246BC
:103F100049463846C0470130E6D00136D9E70000AF
:103F20002DE9FF470F7E9146782F80460C469A4632
:103F30000C9D01F1430207D8622F0AD8002F00F030
:103F4000D980582F00F0A48004F1420584F8427013
:103F50003AE0A7F16303152BF6D801A151F823F03D
:103F6000B93F0008CD3F0008493F0008493F00081D
:103F7000493F0008493F0008CD3F0008493F00087D
:103F8000493F0008493F0008493F0008DB4000085E
:103F9000FD3F0008BD400008493F0008493F0008B8
:103FA000FD400008493F0008FD3F0008493F000868
:103FB000493F0008C54000082B681A1D1B682A608D
:103FC00004F1420584F842300123A4E02068296806
:103FD000060601F104030AD50E682B60002E03DAF1
:103FE0002D23764284F843300A235E4819E00E6898
:103FF00010F0400F2B6018BF36B2EFE72B68206837
:10400000191D2960010601D51E6802E04606FBD590
:104010001E886F2F0CBF08230A235248002184F802
:1040200043106568002DA8BF2168A560A4BF21F0DA
:10403000040121600EB9002D4DD01546B6FBF3F1F9
:1040400003FB1167C75D05F8017D3746BB420E468D
:10405000F4D9082B0BD12368DE0708D523696168E2
:104060009942DEBF302305F8013C05F1FF35521BB4
:1040700022614B4621464046CDF800A003AAFFF737
:10408000DFFE01304CD14FF0FF3004B0BDE8F087C7
:10409000344881F845702968236851F8046B296019
:1040A0001D0614D5DF0744BF43F0200323601EB96B
:1040B000236823F0200323601023AFE7236843F035
:1040C000200323607823284884F84530E3E7590625
:1040D00048BFB6B2E6E71546BBE72B682668181D51
:1040E0006169286035061B6801D5196002E0700619
:1040F000FBD51980002315462361BAE72B68002100
:104100001A1D2A601D686268284600F02FF808B161
:10411000401B606063682361002384F84330A8E794
:104120002A46494640462369D0470130ABD0236830
:104130009B0713D4E068039B9842B8BF1846A4E7D6
:104140000123324649464046D04701309BD00135D5
:10415000E36803995B1AAB42F2DCEBE7002504F15C
:104160001906F5E7C54A0008D64A0008034610B507
:10417000C9B202449342184601D1002003E00478FA
:1041800001338C42F6D110BD884210B501EB020418
:1041900002D98442234607D8431EA14208D011F811
:1041A000012B03F8012FF8E7014602448A4200D1AF
:1041B00010BD13F8014D02F8014DF7E738B505467B
:1041C000002940D051F8043C0C1F002BB8BFE41864
:1041D00000F010F91C4A136833B963601460284674
:1041E000BDE8384000F00CB9A34208D92068211876
:1041F0008B4201BF19685B6809182160EDE71A4618
:104200005B680BB1A342FAD911685018A0420BD1D8
:1042100020680144501883421160E0D118685B683F
:10422000014411605360DAE702D90C232B60D6E712
:10423000206821188B4201BF19685B68091821604A
:1042400063605460CBE738BD4803002070B50E4E64
:104250000C463168054611B900F0BCF830602146C3
:10426000284600F0B7F8431C0AD0C41C24F003040D
:10427000A04207D0211A284600F0ACF8013001D145
:104280004FF0FF34204670BD4C0300202DE9F04173
:10429000CD1C25F0030508350C2D38BF0C25002D4D
:1042A000074601DBA94205D90C2300263B603046B6
:1042B000BDE8F0812E4E00F09DF833681C4634BBFB
:1042C00029463846FFF7C2FF431C04464DD13468E7
:1042D0002646002E40D123683146384604EB0308B9
:1042E00000F078F880453AD1216803356D1A25F041
:1042F000030508350C2D38BF0C2538462946FFF735
:10430000A5FF01302BD023682B4423600EE02268E8
:10431000521B1ED40B2A16D96119A342256018BF5F
:104320005960636808BF316062514B60384604F1E0
:104330000B0600F065F826F00706231DF21AB6D02A
:104340009B1BA350B3E76268A3420CBF32605A6064
:10435000ECE723466468B2E734467668B9E70C2395
:1043600038463B6000F04CF8A1E72560DEE700BF6F
:10437000480300202DE9F041804614460E4621B93D
:104380001146BDE8F041FFF781BF2AB9FFF716FFDC
:1043900025462846BDE8F08100F038F884420746FB
:1043A00002D8B4EB500F12D821464046FFF76EFFFB
:1043B00005460028EDD0BC422246314628BF3A4689
:1043C000FFF7ACFB31464046FFF7F8FEE1E7354624
:1043D000DFE7000038B50023054D044608462B6092
:1043E00000F01EF8431C02D12B6803B1236038BDD6
:1043F00050030020014800F011B800BF5403002012
:10440000014800F00CB800BF5403002051F8043CF0
:10441000181F002BBCBF0B58C0187047704770475F
:10442000044A05491368002B08BF0B461844106066
:10443000184670475803002060030020F8B500BFFD
:10444000F8BC08BC9E467047F8B500BFF8BC08BC75
:044450009E467047CD
:1044540050726F63657373696E672E2E2E000000B1
:1044640048656C6C6F21212057656C636F6D650026
:104474002564206D6D48670025642F2564206D6DCB
:1044840048670000426C6F6F6420507265737375E7
:1044940072653A0002030405060708090A0B0C0DAD
:1044A4000E0F1010010200000000000000000000C8
:1044B40001020304060708090000000001020304C6
:1044C40000000000000000000000000000000000E8
:1044D4000020002000200020002000000020000018
:1044E40000500050005000000000000000000000D8
:1044F4000050005000F8005000F800500050000038
:104504000020007800A00070002800F000200000C7
:1045140000C000C8001000200040009800180000EF
:10452400004000A000A0004000A800900068000027
:1045340000300030002000400000000000000000B7
:104544000010002000400040004000200010000047
:104554000040002000100010001000200040000067
:10456400002000A8007000F8007000A800200000DF
:1045740000000020002000F80020002000000000BF
:1045840000000000000000000030003000200000A7
:1045940000000000000000F800000000000000001F
:1045A40000000000000000000000003000300000A7
:1045B40000000008001000200040008000000000FF
:1045C40000700088009800A800C8008800700000EF
:1045D4000020006000200020002000200070000067
:1045E40000700088000800700080008000F800005F
:1045F40000F8000800100030000800880070000077
:10460400001000300050009000F80010001000006E
:1046140000F8008000F00008000800880070000026
:1046240000380040008000F000880088007000001E
:1046340000F800080008001000200040008000007E
:1046440000700088008800700088008800700000F6
:1046540000700088008800780008001000E0000066
:104664000000000000200000002000000000000006
:104674000000000000200000002000200040000096
:104684000008001000200040002000100008000076
:104694000000000000F8000000F800000000000026
:1046A400004000200010000800100020004000001E
:1046B4000070008800080030002000000020000086
:1046C4000070008800A800B800B0008000780000E6
:1046D400002000500088008800F80088008800004E
:1046E40000F00088008800F00088008800F00000D6
:1046F4000070008800800080008000880070000046
:1047040000F00088008800880088008800F000001D
:1047140000F80080008000F00080008000F80000B5
:1047240000F80080008000F000800080008000001D
:1047340000780088008000800098008800780000DD
:1047440000880088008800F800880088008800003D
:1047540000700020002000200020002000700000D5
:1047640000380010001000100010009000600000DD
:104774000088009000A000C000A000900088000005
:1047840000800080008000800080008000F800002D
:10479400008800D800A800A800A8008800880000AD
:1047A4000088008800C800A80098008800880000DD
:1047B400007000880088008800880088007000006D
:1047C40000F00088008800F0008000800080000075
:1047D400007000880088008800A80090006800002D
:1047E40000F00088008800F000A00090008800001D
:1047F40000700088008000700008008800700000CD
:1048040000F800A800200020002000200020000064
:1048140000880088008800880088008800700000F4
:10482400008800880088008800880050002000006C
:1048340000880088008800A800A800A80050000094
:104844000088008800500020005000880088000084
:104854000088008800500020002000200020000074
:1048640000F80008001000700040008000F800000C
:104874000078004000400040004000400078000004
:10488400000000800040002000100008000000002C
:1048940000780008000800080008000800780000FC
:1048A400002000500088000000000000000000000C
:1048B40000000000000000000000000000F80000FC
:1048C40000600060002000100000000000000000F4
:1048D40000000000006000100070009000780000EC
:1048E4000080008000B000C8008800C800B000004C
:1048F4000000000000700088008000880070000044
:10490400000800080068009800880098006800000B
:10491400000000000070008800F8008000700000B3
:10492400001000280020007000200020002000005B
:104934000000000000700098009800680008000063
:104944000080008000B000C8008800880088000053
:104954000020000000600020002000200070000003
:104964000010000000100010001000900060000013
:1049740000800080009000A000C000A00090000013
:1049840000600020002000200020002000700000B3
:104994000000000000D000A800A800A800A80000A3
:1049A4000000000000B000C80088008800880000F3
:1049B400000000000070008800880088007000007B
:1049C4000000000000B000C800C800B00080000073
:1049D40000000000006800980098006800080000CB
:1049E4000000000000B000C80080008000800000CB
:1049F40000000000007800800070000800F0000053
:104A04000020002000F800200020002800100000F2
:104A140000000000008800880088009800680000FA
:104A2400000000000088008800880050002000007A
:104A3400000000000088008800A800A800500000C2
:104A44000000000000880050002000500088000092
:104A5400000000000088008800780008008800003A
:104A64000000000000F800100020004000F80000E2
:104A74000010002000200040002000200010000052
:104A84000020002000200000002000200020000062
:104A94000040002000200010002000200040000002
:104AA400004000A80010000000000000000000000A
:104AB400232D302B2000686C4C0065666745464703
:104AC4000030313233343536373839414243444586
:104AD40046003031323334353637383961626364F5
:044AE4006566000003
:044AE800350100088C
:044AEC0011010008AC
:104AF000B400000001000000100000000024F400D9
:104B000006080000C44400081C000020000000004B
:104B10000000000000000000000000000000000095
:104B20000000000000000000000000000000000085
:104B30000000000000000000000000000000000075
:104B40000000000000000000000000000000000065
:104B50000000000000000000000000000000000055
:0C4B600000000000000000000000000049
:0400000508003A892C
:00000001FF
